:020000041000EA
:1000000000B5324B212058609868022188439860DF
:10001000D860186158612E4B002199600221596106
:100020000121F02299502B49196001219960352056
:1000300000F044F80222904214D00621196600F024
:1000400034F8196E01211966002018661A6600F04E
:100050002CF8196E196E196E052000F02FF8012189
:100060000842F9D1002199601B49196000215960AB
:100070001A491B48016001219960EB211966A021F2
:10008000196600F012F800219960164914480160C1
:100090000121996001BC002800D000471248134993
:1000A000086003C880F30888084703B5996A0420EC
:1000B0000142FBD001200142F8D103BD02B5186610
:1000C0001866FFF7F2FF186E186E02BD00000240BE
:1000D000000000180000070000035F00212200005C
:1000E000F4000018222000A00001001008ED00E03C
:1000F00000000000000000000000000074B24E7A12
:1001000000200420F7010010C3010010C5010010F9
:10011000C1010010C1010010C1010010C101001097
:10012000C1010010C1010010C1010010C701001081
:10013000C1010010C1010010C9010010CB01001065
:10014000CD010010CD010010CD010010CD01001037
:10015000CD010010CD010010CD010010CD01001027
:10016000CD010010CD010010CD010010CD01001017
:10017000CD010010CD010010CD010010CD01001007
:10018000CD010010CD010010CD010010CD010010F7
:10019000CD010010CD010010CD010010CD010010E7
:1001A000CD010010CD010010CD010010CD010010D7
:1001B000CD010010CD010010CD010010CD010010C7
:1001C00000BE00BE00BE00BE00BE00BE00F04BF888
:1001D000103800BEF2EB8871143E0010303E001063
:1001E0003402001090A31AE700202149086006C8D5
:1001F00081F3088810471F48006800282FD10DA4FC
:100200000ECC002902D000F012F8F9E71A491B4A77
:10021000002000E001C19142FCD1194988471949E9
:1002200088471949884700BEFDE701C901C29A42C3
:10023000FBD37047303E0010C00000203C0200207D
:10024000AC3F00100000042000000420AC3F001070
:1002500000100420001004200000000070470B482C
:1002600003F02EF90047EFF30580C0B2704700009D
:1002700008ED00E0000000D0400200201806002039
:10028000912F0010591700108530001057560000AC
:1002900006005250ABB36053EC3D001006005250C4
:1002A000861C0302FC3D0010060052505422A29D01
:1002B000043E001005005250DE65F468AC3F0010AB
:1002C000F8B5C0460448054B10B5834203D0044B33
:1002D000002B00D0984710BD3C0200203C020020BB
:1002E0000000000006480749091A8910CB0F591869
:1002F00010B5491003D0044B002B00D0984710BD17
:100300003C0200203C0200200000000010B5074C19
:100310002378002B09D1FFF7D5FF054B002B02D026
:10032000044800E000BF0123237010BD40030020FB
:1003300000000000783A0010054B10B5002B03D0E8
:100340000449054800E000BFFFF7CCFF10BDC046E0
:100350000000000044030020783A0010F0B5574632
:100360004E464546DE46C44BE0B500215A5EC34DBD
:1003700094462C004420002220260D27C04983B03B
:10038000002A00D03BE1844500D133E18A6916425E
:10039000FCD10860227801340D3A50424241207865
:1003A000D2B20028ECD100215A5EB64E904600220F
:1003B00091460D32340020279446B14942304A46D6
:1003C000002A00D029E1804500D120E18A69174246
:1003D000FCD10860227801340D3A50424241207825
:1003E000D2B291460028EAD100215A5E0D249046EF
:1003F000A54A2027019210005622A44691460022C9
:100400009F49002A00D016E1C84500D10DE18A6954
:100410001742FCD14A460A60027801300D3A544234
:100420005441E2B20478A146002CEAD100215A5E80
:10043000203491460D229548A446133C924607006D
:100440000022A0468E49002A00D003E1D14500D108
:10045000F9E064468A691442FBD152460A603A7850
:1004600001370D3A54425441E2B23C78A246002C86
:10047000E9D100215A5E203492460D228449A046DB
:10048000133C93468C460022A1467D4F002A00D0A3
:1004900002E1DA4500D1E7E04446BA691442FBD1F3
:1004A0005A463A60624612780D3A54425441E2B2DA
:1004B0000124A346DC4464462478A346002CE5D1FD
:1004C00002241A5F202491464422A446133C9246FB
:1004D000A04600226F4F002A00D0EEE0D14500D1A7
:1004E000E4E06446BA691442FBD152463A602A7885
:1004F00001350D3A54425441E2B22C78A246002C08
:10050000E9D102241A5F0D24904642222027914609
:10051000A44600225F4D002A00D0DEE0C84500D18D
:10052000D5E0AA691742FCD14A462A6032780136E2
:100530000D3A54425441E2B23478A146002CEAD13B
:1005400002241A5F0D249046562600222027A44636
:10055000504D002A00D0CEE0B04500D1C5E0AA69D8
:100560001742FCD1019C2E60227801340D3A56428C
:1005700072412678D2B20194002EEAD102241A5F89
:100580000D2594460D270022424C2036002A00D02B
:10059000BEE0AC4500D1B6E0A2691642FCD12560B0
:1005A000027801300D3A55426A410578D2B2002DE9
:1005B000ECD102269E5F0D2000232024354A0D3504
:1005C000002B00D0B1E0864200D1A9E093691C4223
:1005D000FCD110600B7801310D3B58424341087843
:1005E000DBB20028ECD103B03CBC90469946A24651
:1005F000AB46F0BD8A691642FCD10F60C6E68A6937
:10060000164200D1C5E68A691642F8D1C1E68A6968
:100610001742FCD162460A60D8E68A69174200D1C7
:10062000D7E68A691742F8D1D3E68A691742FCD126
:1006300062460A60EBE68A69174200D1EAE68A69F7
:100640001742F8D1E6E664468A691442FBD1424675
:100650000A60FEE664468A69144200D1FDE66446FB
:100660008A691442F6D1F8E64446BA691442FBD1CD
:100670004A463A6010E7C04614040020343C00109B
:1006800000400340683C0010783A00108C3C001099
:100690009C3C0010008003404446BA69144200D1DB
:1006A000FEE64446BA691442F6D1F9E66446BA69F0
:1006B0001442FBD142463A6013E76446BA691442D9
:1006C00000D112E76446BA691442F6D10DE7AA696F
:1006D0001742FCD162462A6023E7AA69174200D17B
:1006E00022E7AA691742F8D11EE7AA691742FCD18E
:1006F00062462A6033E7AA69174200D132E7AA6945
:100700001742F8D12EE7A2691642FCD1276043E7D1
:10071000A269164200D142E7A2691642F8D13EE72B
:1007200093691C42FCD1156050E793691C4200D1CB
:100730004FE793691C42F8D14BE7C046F8B5CE4667
:10074000474680B5632800D1BBE03F2856D031280A
:1007500000D003E1AE4A1368002B01D100F088FEFF
:10076000012B00D0A9E0D02380211B0689049961C8
:1007700000230D261360A74AA74C0023D15E250055
:100780008846272700202021B446A44B002801D00A
:1007900000F0ADFFB84501D100F0B3FF9869014208
:1007A000FCD11F60287801350D38474278412F78F9
:1007B000C0B2002FEAD100210223D55E2720984B3A
:1007C00020220D26002912D1854201D100F0A0FF80
:1007D00099690A42FCD11860217801340D394842E8
:1007E00041412078C9B2002867D00029ECD099692E
:1007F0000A42F0D099690A42F9D1ECE7854A002310
:10080000D45E1B2C01D100F009FE202083498B69A6
:100810001842FCD11B230B605B2C01D100F010FEB1
:1008200020207E498B691842FCD15B230B60322C5F
:1008300001D100F0FCFD202078498B691842FCD1E1
:1008400032230B604A2C01D100F0D6FD20207349E1
:100850008B691842FCD14A230B600223D05E1B280F
:1008600001D100F0C0FD20216D4A93691942FCD1ED
:100870001B2313605B2801D100F0ACFD2021684AE6
:1008800093691942FCD15B231360322801D100F037
:1008900098FD2021624A93691942FCD132231360EA
:1008A0004A2801D100F0B1FD20215D4A9369194227
:1008B000FCD14A231360FFF751FD0CBC90469946CA
:1008C000F8BD0D26534A574C0023D15E250027273B
:1008D0000023B446884651494338002B31D1B845EE
:1008E00036D08B691842FCD10F602B7801350D3B57
:1008F0005F427B412F78DBB2002FEED10223D55E21
:1009000000232720464A20210D26002B12D18542A4
:1009100001D100F0D4FC93691942FCD11060237816
:1009200001340D3B584243412078DBB20028C4D04B
:10093000002BECD093691942F0D093691942F9D198
:10094000ECE78B691842CFD08B691842F9D1CBE71D
:100950008B691842FCD163460B60C2E7322865D12F
:10096000D0248025FA200D2624066D0265618000C2
:1009700001F0E2FDA561274A2B4C0023D15E250042
:10098000272700232020B44688462449002B32D153
:10099000B84537D08B691842FCD10F602B780135F0
:1009A0000D3B5F427B412F78DBB2002FEED102235B
:1009B000D55E002327201A4A20210D26002B13D1B3
:1009C000854201D100F075FC93691942FCD1106099
:1009D000237801340D3B584243412078DBB2002894
:1009E00000D16AE7002BEBD093691942EFD09369ED
:1009F0001942F9D1EBE78B691842CED08B691842C6
:100A0000F9D1CAE78B691842FCD163460B60C1E794
:100A1000E403002014040020D83A001000400340F2
:100A200000800340AC3A0010F43A0010332857D14C
:100A3000D0248025FA200D262406AD0265618000B1
:100A400001F07AFDA561534A534C0023D15E250085
:100A5000272700232020B44688465049002B32D156
:100A6000B84537D08B691842FCD10F602B7801351F
:100A70000D3B5F427B412F78DBB2002FEED102238A
:100A8000D55E00232720464A20210D26002B13D1B6
:100A9000854201D100F007FC93691942FCD1106036
:100AA000237801340D3B584243412078DBB20028C3
:100AB00000D102E7002BEBD093691942EFD0936984
:100AC0001942F9D1EBE78B691842CED08B691842F5
:100AD000F9D1CAE78B691842FCD163460B60C1E7C4
:100AE000342861D1D0248025FA200D262406ED0279
:100AF0006561800001F020FDA561264A294C002394
:100B0000D15E2500272700232020B44688462349AC
:100B1000002B31D1B84536D08B691842FCD10F601B
:100B20002B7801350D3B5F427B412F78DBB2002FE4
:100B3000EED10223D55E00232720194A20210D265D
:100B4000002B12D1854200D1A8E393691942FCD150
:100B50001060237801340D3B584243412078DBB2CA
:100B6000002800D1A9E6002BECD093691942EFD000
:100B700093691942F9D1EBE78B691842CFD08B69A1
:100B80001842F9D1CBE78B691842FCD163460B6060
:100B9000C2E7C04614040020083B00100040034098
:100BA00000800340203B0010352800D0ACE1D0236A
:100BB0001B065A68012112033ED45B681B0D1942C3
:100BC0003AD10D26CA4ACB4C0023D15E2500884677
:100BD000272700202021B446C74B002800D082E3FD
:100BE000B84500D187E398690142FCD11F6028789D
:100BF00001350D38474278412F78C0B2002FECD133
:100C00000223D55E2720002120220D26BB4B002980
:100C100001D000F043FD854201D100F049FD996902
:100C20000A42FCD11860217801340D394842414113
:100C30002078C9B20028EAD1D0231B065A680121C6
:100C400012037FD45B681B0D19427BD00D26A84A86
:100C5000A84D0023D15E2C008846272700202021A4
:100C6000B446A54B002800D059E3B84500D15EE357
:100C700098690142FCD11F60207801340D38474249
:100C800078412778C0B2002FECD10D200021535EAF
:100C90009B4C984600232600202184469946964B7B
:100CA00027374846002801D000F094FCB84501D110
:100CB00000F09AFC98690142FCD11F60307801363F
:100CC0000D38474278413778C0B28146002FE8D1CD
:100CD0000D260223D15E00208846B4462021874B92
:100CE0002737002801D000F086FCB84501D100F07C
:100CF0008CFC98690142FCD11F60287801350D38C1
:100D0000474278412F78C0B2002FEAD10223D55E46
:100D10002720002120220D26784B002901D000F049
:100D20007BFC854201D100F081FC99690A42FCD12B
:100D30001860217801340D39484241412078C9B208
:100D40000028EAD1D0231B065A68012112037FD55F
:100D50005B681B0D19427BD10D26654A654D00234A
:100D6000D15E2C008846272700202021B446624B04
:100D7000002800D0C5E2B84500D1CAE29869014216
:100D8000FCD11F60207801340D3847427841277824
:100D9000C0B2002FECD10D200021535E594C984673
:100DA00000232600202184469946534B2737484686
:100DB000002801D000F040FCB84501D100F046FC0D
:100DC00098690142FCD11F60307801360D384742E6
:100DD00078413778C0B28146002FE8D10D26022332
:100DE000D15E00208846B4462021444B2737002896
:100DF00001D000F032FCB84501D100F038FC986910
:100E00000142FCD11F60287801350D3847427841F6
:100E10002F78C0B2002FEAD10223D55E272000210F
:100E200020220D26354B002901D000F027FC8542F9
:100E300001D100F02DFC99690A42FCD1186021789B
:100E400001340D39484241412078C9B20028EAD125
:100E5000D0231B065A680121120300D42DE55B68DC
:100E60001B0D194200D128E50D26214A214C0023F3
:100E7000D15E25008846272700202021B4461E4B3E
:100E8000002800D021E2B84500D126E2986901424D
:100E9000FCD11F60287801350D38474278412F7802
:100EA000C0B2002FECD100210223D55E2720134BC6
:100EB00020220D26002913D1854201D100F0FEFB2E
:100EC00099690A42FCD11860217801340D394842F1
:100ED00041412078C9B2002800D1EEE40029EBD0CE
:100EE00099690A42EFD099690A42F9D1EBE7C04605
:100EF00014040020343B00100040034000800340F5
:100F00004C3B0010643B0010362851D1D023802286
:100F10000D261B0692035A61A44CA54A2500002306
:100F2000D15E272700232020B4468846A149002B04
:100F300031D1B84536D08B691842FCD10F602B787F
:100F400001350D3B5F427B412F78DBB2002FEED1A4
:100F50000223D55E00232720974A20210D26002B4F
:100F600012D1854200D194E193691942FCD11060FD
:100F7000237801340D3B584243412078DBB20028EE
:100F800000D19AE4002BECD093691942EFD0936919
:100F90001942F9D1EBE78B691842CFD08B6918421F
:100FA000F9D1CBE78B691842FCD163460B60C2E7ED
:100FB000372851D1D02380220D261B0692039A6137
:100FC0007E4C7B4A25000023D15E2727002320206A
:100FD000B44688467749002B31D1B84536D08B6965
:100FE0001842FCD10F602B7801350D3B5F427B41ED
:100FF0002F78DBB2002FEED10223D55E002327200D
:101000006D4A20210D26002B12D1854200D13BE1F3
:1010100093691942FCD11060237801340D3B58428A
:1010200043412078DBB2002800D146E4002BECD00D
:1010300093691942EFD093691942F9D1EBE78B69B3
:101040001842CFD08B691842F9D1CBE78B6918428F
:10105000FCD163460B60C2E7382852D1D0238022EE
:101060000D261B06D2035A61554C514A2500002318
:10107000D15E272700232020B44688464D49002B07
:1010800032D1B84537D08B691842FCD10F602B782C
:1010900001350D3B5F427B412F78DBB2002FEED153
:1010A0000223D55E00232720434A20210D26002B52
:1010B00013D1854200D1E2E093691942FCD110605E
:1010C000237801340D3B584243412078DBB200289D
:1010D00001D1FFF7F2FB002BEBD093691942EED060
:1010E00093691942F9D1EAE78B691842CED08B692E
:1010F0001842F9D1CAE78B691842FCD163460B60EC
:10110000C1E7392860D1D02380220D261B06D203E7
:101110009A612C4C264A25000023D15E2727002304
:101120002020B44688462349002B32D1B84537D019
:101130008B691842FCD10F602B7801350D3B5F4263
:101140007B412F78DBB2002FEED10223D55E002346
:101150002720194A20210D26002B13D1854200D1CA
:1011600088E093691942FCD11060237801340D3B6B
:10117000584243412078DBB2002801D1FFF79DFBA4
:10118000002BEBD093691942EED093691942F9D143
:10119000EAE78B691842CED08B691842F9D1CAE7C9
:1011A0008B691842FCD163460B60C1E77C3B0010A1
:1011B000140400200040034000800340943B0010D2
:1011C000B03B0010C83B0010302800D0B5E0A14A69
:1011D0001368002B00D1A4E1012B01D0FFF76DFBB8
:1011E000D02380211B064905996100230D26136039
:1011F000994A9A4C0023D15E250088462727002073
:101200002021B446964B002800D05DE2B84500D1BD
:1012100062E298690142FCD11F60287801350D38DF
:10122000474278412F78C0B2002FECD10021022331
:10123000D55E27208B4B20220D26002913D1854215
:1012400000D14FE299690A42FCD11860217801343B
:101250000D39484241412078C9B2002801D1FFF739
:101260002CFB0029EBD099690A42EED099690A4219
:10127000F9D1EAE793691942FCD1166071E79369E5
:101280001942FCD1166017E793691942FCD1166028
:10129000BEE693691942FCD1166065E6936919426E
:1012A000FCD1166051E493691942FCD11660FFF736
:1012B000F3FB93691942FCD11660FFF785FB936934
:1012C0001942FCD11660FFF726FB9869014200D154
:1012D000DFE598690142F8D1DBE598690142FCD16C
:1012E00060461860D2E59869014200D17EE49869B1
:1012F0000142F8D17AE498690142FCD16046186055
:1013000071E49869014200D13BE598690142F8D146
:1013100037E598690142FCD1604618602EE598696E
:10132000014200D1A7E498690142F8D1A3E4986989
:101330000142FCD1604618609AE4552801D0FFF7BD
:10134000BCFA0D27444A484C0023D15E250088464C
:10135000272600202021BC46414B002800D0DDE19B
:10136000B04500D1DEE198690142FCD11E602878C9
:1013700001350D38464270412E78C0B2002EECD1B6
:101380000223D65E2720002120220D25354B00297F
:1013900000D0CDE1864200D1CEE199690A42FCD16C
:1013A0001860217801340D39484241412078C9B292
:1013B0000028ECD12D4802F083F80021030008003A
:1013C00098472021274A93691942FCD10D231360C5
:1013D000FFF75FFA2021234A93691942FCD10D23BC
:1013E0001360FFF74BFA20211E4A93691942FCD182
:1013F0000D231360FFF737FA202019498B69184233
:10140000FCD10D230B60FFF721FA2021154A9369C7
:101410001942FCD10D231360FFF746FA2020104932
:101420008B691842FCD10D230B60FFF7EEF92020E9
:101430000B498B691842FCD10D230B60FFF7FBF9B8
:10144000202007498B691842FCD10D230B60FFF760
:10145000E7F9C0466C03002014040020FC3B001098
:101460000040034000800340143C0010554200003F
:10147000D02380211B068904596101230D261360A6
:10148000B04AB14C0023D15E2500884627270020B2
:101490002021B446AD4B002831D1B84536D09869EB
:1014A0000142FCD11F60287801350D384742784150
:1014B0002F78C0B2002FEED100210223D55E272065
:1014C000A34B20220D26002912D1854224D09969F0
:1014D0000A42FCD11860217801340D39484241415B
:1014E0002078C9B2002801D1FFF7E7F90029ECD034
:1014F00099690A42EED099690A42F9D1EAE79869F6
:101500000142CFD098690142F9D1CBE798690142F5
:10151000FCD160461860C2E799690A42FCD11E609E
:10152000D5E7D02380211B064905596101230D26EB
:101530001360844A874C0023D15E25008846272704
:1015400000202021B446814B002831D1B84536D047
:1015500098690142FCD11F60287801350D38474257
:1015600078412F78C0B2002FEED100210223D55E42
:101570002720774B20220D26002912D1854224D026
:1015800099690A42FCD11860217801340D3948422A
:1015900041412078C9B2002801D1FFF78EF9002916
:1015A000ECD099690A42EED099690A42F9D1EAE78A
:1015B00098690142CFD098690142F9D1CBE7986987
:1015C0000142FCD160461860C2E799690A42FCD129
:1015D0001E60D5E79869014201D1FFF76EFB98695B
:1015E0000142F7D1FFF769FB98690142FCD16046DF
:1015F0001860FFF75FFB9869014201D1FFF77CFBA0
:1016000098690142F7D1FFF777FB98690142FCD155
:1016100060461860FFF76DFB99690A4201D1FFF738
:1016200087FB99690A42F7D1FFF782FB99690A4261
:10163000FCD11E60FFF779FB9869014201D1FFF7E9
:10164000C2FB98690142F7D1FFF7BDFB98690142DF
:10165000FCD160461860FFF7B3FB9869014201D1E5
:10166000FFF7D0FB98690142F7D1FFF7CBFB9869F0
:101670000142FCD160461860FFF7C1FB99690A423C
:1016800001D1FFF7DBFB99690A42F7D1FFF7D6FBDF
:1016900099690A42FCD11E60FFF7CDFB99690A42A5
:1016A00001D1FFF7BFFA99690A42F7D1FFF7BAFAF9
:1016B00099690A42FCD11E60FFF7B1FA99690A42A2
:1016C000FCD11E60FFF7FCFB9869014200D1A3E545
:1016D00098690142F8D19FE598690142FCD16046C2
:1016E000186096E599690A42FCD11E60AAE59869DE
:1016F000014201D1FFF755F898690142F7D1FFF790
:1017000050F898690142FCD160461860FFF746F82E
:1017100099690A42FCD11E60FFF75AF898690142A4
:10172000FCD123E698690142FCD1604618601AE6B4
:1017300099690A42FCD133E699690A42FCD11D60DD
:101740002BE6C04614040020C03A001000400340BD
:1017500000800340E43B0010F0B5DE464E464546AF
:101760005746E121E0B5C027CC4C83B049022000A8
:1017700001F09CFB0021002000F0B4F901210120C0
:1017800000F0B0F9236B3F02C54A3B40136060266E
:10179000E36A6E24E121C34AC34D734023401360C2
:1017A0004902280001F082FB0821082000F09AF984
:1017B0000921092000F096F92B6BBC4A3B401360CD
:1017C000EB6A192073401C40B94B80251C6000F067
:1017D000B9F9102000F0B6F9112000F0B3F9122089
:1017E00000F0B0F9132000F0ADF9142000F0AAF9D0
:1017F000152000F0A7F9162000F0A4F91C2000F035
:10180000A1F9D024802324069B04636280235B0219
:10181000636280239B02636280238026DB022D03A8
:1018200063620022012113207603A56200F072F9A1
:10183000002201211420A66200F06CF980239B0392
:1018400063628023DB03636280235B0563620221A2
:10185000002000F047F90221012000F043F90221A5
:10186000082000F03FF90221092000F03BF9FEF7C3
:1018700075FD904BB1469B468F4B0195984663682A
:10188000019A134204D14A466368134200D1DCE056
:101890006368019A134004D1494662680A4200D045
:1018A000DAE06368019A134204D04A46636813423F
:1018B00000D1D7E06368019A134204D04A466368B6
:1018C000134200D0D5E05B4642461B681268934243
:1018D00005D0002B22D0012B5FD0424613606F4E03
:1018E0001027B369DB0609D4B3691F42FCD1306805
:1018F000C0B2FEF723FFB3691F42F5D06A4E10272E
:10190000B369DB06BBD4B3691F42FCD13068C0B2F7
:10191000FEF714FFB3691F42F5D0B0E7674B684884
:1019200000229B5E06009C460D2100258A466046EB
:10193000272720222900B446584B00296BD1B842F2
:1019400070D099690A42FCD11F60317801360D3997
:101950004F4279413778C9B2002FEED10D2560464C
:10196000272600212022AC46544B0227DF5F4E4B36
:1019700000295DD1B74262D099690A42FCD11E604C
:10198000017801300D394E4271410678C9B2002EFE
:10199000EED15B461B68012B9FD1484B0D250022E1
:1019A0009B5EAA469C466546464827270600844615
:1019B000002120222800394B002961D1B84266D08D
:1019C00099690A42FCD11F60317801360D394F42C6
:1019D00079413778C9B2002FEED10D256046272610
:1019E00000212022AC46354B0227DF5F2E4B002919
:1019F0006AD1B7426FD099690A42FCD11E60017862
:101A000001300D394E4271410678C9B2002EEED137
:101A10005B461B6861E799690A4295D099690A4259
:101A2000F9D191E799690A42FCD15146196088E7DA
:101A300099690A42A3D099690A42F9D19FE7996945
:101A40000A42FCD16146196096E702235A46642097
:101A5000136000F071FD1BE75A466420136000F02C
:101A60006BFD1EE701235A466420136000F064FDFD
:101A700020E702235A466420136000F05DFD22E750
:101A800099690A429FD099690A42F9D19BE79969FD
:101A90000A42FCD15146196092E7C046004003401B
:101AA000305003402C5003400080034030900340EE
:101AB0002C9003407C0100208001002014040020B1
:101AC0004C3B0010643B001099690A4296D099691A
:101AD0000A42F9D192E799690A42FCD1614619603C
:101AE00089E7C046094A830094464022634410B502
:101AF0001C68C0006240C02414408022520113437D
:101B00001C60034B9C466044416010BD04C0014012
:101B1000004001400A4B80009C4604236044002999
:101B200001D00C230821002A00D10B000268534089
:101B30000C221A4080235B01184302607047C046A4
:101B400004C001400123D0228340120693629361B6
:101B5000094A83009446402263441968C0004A4001
:101B6000C02111408022520113431960034B9C464F
:101B7000052360444360704704C0014000400140B9
:101B8000F8B5EFF3108772B60D4E3368002BFCD01A
:101B9000BFF35F8F0725CB08C01801230D40AB4072
:101BA0001D000478254007D123430370BFF35F8FE6
:101BB000356087F31088F8BD100001F065FAC04663
:101BC0002C0100D0024B18688007C00F7047C04638
:101BD00000C006400021044B044ABFF35F8F02C3DC
:101BE0009342FAD17047C046000100D0800100D076
:101BF000044A1078431CDBB2172B00D91023137052
:101C00007047C0468401002001238340002904D08E
:101C1000034A1360034A13607047034A1360FBE7EB
:101C200080E200E000E100E080E100E0024B1030E3
:101C30009B688000C058704700ED00E070B50D0053
:101C4000EFF3108672B60F4A1368002BFCD0BFF377
:101C50005F8F0D4B10309B6884001B590B4A9342D9
:101C600003D09D4201D001F027FA074B9B681D511C
:101C7000BFF35F8FBFF35F8F0022024B1A6086F3C2
:101C8000108870BD240100D000ED00E0CD010010EF
:101C9000F0B54546DE4657464E46E0B50D0083B0EA
:101CA000EFF3108A72B65A4A1368002BFCD0BFF3C8
:101CB0005F8F1022914681444A46564B96009B689E
:101CC0009C59554B98469C4205D0AC4216D0534F78
:101CD000E31B2F2B14D94F4B9B689C51BFF35F8F95
:101CE000BFF35F8F00224A4B1A608AF3108803B05B
:101CF0003CBC90469946A246AB46F0BD1C00EAE7C4
:101D0000012383409B465A46454B1B681A4000926C
:101D10005A46444B1A60BFF35F8FFEF7A4FA019056
:101D2000002803D0814501D001F0C6F9012322002B
:101D300006219A43936851569D420AD152E04B00C6
:101D40005B1806219B00FB1898685956A8420FD0D3
:101D50001A000029F3DA009B002B05D05A46324BBB
:101D60001A602F4B1A60B6E75A462E4B1A60B2E73C
:101D7000002921DB4A00501880003D188046A868E1
:101D80009860E879D871062028569871002826DBDB
:101D9000AD88F81A6D052D1545444019E02500055C
:101DA000400D2D02284398805218204B9200BF18F6
:101DB0001A781970BA71CEE70199002918D1002A52
:101DC00023D0FF3191711A49918018490A789A718C
:101DD000184ADB1B5B415A43120D0A70BBE7BD205A
:101DE0000002E0E713000029C4DA019A002A0CD0AF
:101DF000114A1249D21A083A5002400D0143998003
:101E00000F4952080A43DA80A5E74446DDE7C04699
:101E1000240100D000ED00E0CD0100108801002079
:101E200000E100E080E100E080E200E01104002039
:101E300000BDFFFFAAAA0000C201002000F0FFFFC2
:101E400000F8FFFFF8B5012504000543FEF70BFA83
:101E5000EFF3108672B6214A1368002BFCD0BFF353
:101E60005F8F1F4B1F4A2100C91A49414A43120D77
:101E70001D4980008F6852B23F58AF421CD00621E6
:101E8000595691421CD012215956914222D01E21FE
:101E90005956914220D02A2159560320914210D000
:101EA000124B19781A70A171BFF35F8F00220B4B90
:101EB0001A6086F31088F8BD8B680D491950EFE75A
:101EC00000204100091889005B18FF219971094918
:101ED0009980E5E70120F4E70220F2E7240100D031
:101EE00088010020AAAA000000ED00E011040020F3
:101EF000CD01001000BDFFFF054B064A1360064AE6
:101F0000136053609360D3601361536193617047B2
:101F10008080808000E400E004E400E0024B9C4606
:101F200061448900016070474000003483680B48B9
:101F300010B5844661446244090112019A18591887
:101F400054684B6801209C4201D802D00020C0B2E6
:101F500010BD12680B689A42F9D8F7E7FFFFFF0F30
:101F60000A4B1968EFF3108072B60A68002AFCD099
:101F7000BFF35F8F1B68BFF35F8F00221A6080F38F
:101F8000108840BF002000217047C046FC0300209D
:101F9000F8B5454657464E46DE46E0B514000DAA54
:101FA00012781D000CAB92461B7802688146904661
:101FB000002B13D1977B002F4AD040467E00126839
:101FC000F619033E921951783B008173002900D124
:101FD000C173002191705170117003E01F005E0009
:101FE000F618033E2E4A94464A4692686344944645
:101FF0001B010A9A63449A600B9A1C605D60DA6068
:10200000434600221B689B199A705A701A70434607
:102010005B7B9B46002B2BD043463A009868594681
:102020005B6898475B4642465B005B44033B126833
:10203000002814D0D31896195A46B2701A78002A7C
:1020400000D072701F705A4643465A73BB4511D078
:1020500038003CBC90469946A246AB46F8BDD31822
:1020600096199F703278002A00D05A705B46337000
:1020700043465F734B462200187D2B0000F03EFB69
:10208000041E07D05346002B04D14B463900186874
:1020900000F0B2FE0E9B002BDAD01C70D8E7C046D1
:1020A000FFFFFF0FF0B5DE4657464E46454600237C
:1020B000E0B58DB00A936D4B8200D45800239B4647
:1020C0000B9000F0B9FA6268EFF3108572B61368EE
:1020D000002BFCD0BFF35F8F23689C465B7B994647
:1020E000002B00D16BE0A268614B90464B441B0172
:1020F000984443461E685F6832003B00121A8B41C9
:10210000002B65DD3B0032000B9800F0F7FA00234E
:10211000002208920993002300279A466368BFF3C0
:102120005F8F5A461A6085F310885346002B08D1FA
:102130000028C6D10DB03CBC90469946A246AB469D
:10214000F0BD0A9B390018024B461843D04762681D
:1021500006900791EFF3108872B65646454613680D
:10216000002BFCD0B246A846BFF35F8F0699079AB2
:10217000131E49DB194302D02369002B5FD123686A
:10218000DA7B002A07D051008A1819688C46494624
:102190006244033A51704A46DA73E2684B46944609
:1021A000013B63441A7801321A705B46236163680D
:1021B000BFF35F8F5A461A6088F3108881E70023C7
:1021C000002208920993002300279A460020A5E7E1
:1021D000002B01D1002A95D10021604600F02EFD90
:1021E00043461A685B680892099343469B689A467F
:1021F0004346DF68E3684B44013B1B780A931B02AC
:1022000003432361002089E72369002BB7D0089D91
:10221000099E6D1A96412A003300089D099E9E4230
:1022200018D81BD0594604910121039149460291C7
:102230005146019700912000FFF7AAFEB5E700F094
:10224000FBF9069A079B12184B41994202D8E9D133
:102250009042E7D901225242D317E3E7089991420D
:10226000E0D901225242D317DCE7C046E803002040
:10227000FFFFFF0F10B5124C6368002B04D00A213A
:102280001048FFF74BFE10BD23000F4A10212068B5
:1022900000F0F6FA032000F0C3F9032000F0A2FAE0
:1022A0000A49032000F0E4F9FFF7A2FC084B9C4622
:1022B000032360442375074B80006060DC60DEE729
:1022C000D0010020FC0300202D1F0010A5200010CD
:1022D00040000034E8030020F0B557464546DE468E
:1022E0004E46E0B585B00092019310AB1B780027F5
:1022F0000393002380469A4643465A68EFF31089B9
:1023000072B61368002BFCD0BFF35F8F43461D6885
:10231000AC7B002C4FD0660036192B68033E9B190E
:102320005A78AA73002A00D1EA7342469F705F7000
:102330001F7092684E4B94460099019AE3181B0156
:10234000634419605A600E9A9A600F9ADA602B689B
:102350009B199F705F701F706B7B9B46002B42D058
:1023600022001900A8686B6898475B465B005B44D5
:10237000033B2A6800282DD0D31896195A46B2700C
:102380001A78002A00D072701C705B466B735C4533
:102390002AD04346DB681B19013B187843465B682B
:1023A000BFF35F8F1F6089F310885346002B2AD13B
:1023B0000002204307E05B68BFF35F8F1C6089F376
:1023C00010880120404205B03CBC90469946A24688
:1023D000AB46F0BDD31896199C703278002A00D015
:1023E0005A705B4633706C734346187D009A019BAC
:1023F00000F084F982460028CBD0434621001868BB
:1024000000F0FAFCC5E7039B002B2FD00E9B0F9921
:102410000020984703000B4328D004000D1E0DDA5E
:102420000098019902000B00121BAB41994213D88E
:1024300018D000920193039B9A465DE700F0FCF8E8
:1024400024184D4123002C0000930194A94203D885
:10245000F1D1009B9842EED901235B42DC17009337
:102460000194E8E700999142E3D9F5E70020AAE753
:10247000FFFFFF0FF0B504000D0006267642F717A8
:10248000C64636196F4100B584B08F4214D811D0BA
:1024900000F0D2F832003B00121A8B41002B15DC01
:1024A000002B3ED02000290000F0D2F804B004BC7C
:1024B0009046F0BD8642EBD90026002700F0BCF81C
:1024C00032003B00121A8B41002BE9DD00230293FE
:1024D0000193154B3200009314483B00FFF7FCFEBC
:1024E0000028DFDB00239846BC46114A114F7B6A67
:1024F0009C4504D8B96AB142D4D29C45D2D1116866
:10250000EFF3108072B60B68002BFCD0BFF35F8F27
:102510001368BFF35F8F4146196080F3108820BFB6
:10252000E5E7002ABED0D1E7611F0010D0010020EE
:10253000FC0300200040054070B5060000F07CF868
:10254000FA2204000D00920000233000002101F067
:102550007FF8001969418D4205D802D0FFF78AFF44
:1025600070BD8442FAD901204042C117F6E7C04647
:10257000F0B5C64600B5EFF305833F2213401800BF
:102580001038EFF3108772B61F4D2A68002AFCD06E
:10259000BFF35F8F012211008140884644461B49EA
:1025A0004C631B4C2678A4463400C440224015D00E
:1025B0004C6A1849820051588C4217D3164BD25896
:1025C00043469E4363461E70BFF35F8F00232B601C
:1025D00087F31088002A06D0904704E0BFF35F8F8E
:1025E0002A6087F3108804BC9046F0BD0B4A9B001C
:1025F000944663441A681A60BFF35F8F00232B6010
:1026000087F31088EFE7C046280100D0004005405E
:1026100012040020000400205C030020D03F05408D
:1026200010B50100024A0348FFF7AAFA10BDC046E0
:10263000703D001010040020044A516A00E01900A7
:10264000906A536A9942FAD17047C04600400540EB
:10265000064A536A9942FCD807D1044B02E05A6AF1
:10266000914202D19A6A8242F9D3704700400540F4
:1026700070B504000D00EFF3108672B61A4A1368A5
:10268000002BFCD0BFF35F8F002D1BD02000FFF785
:10269000CDFA164988420AD02000FFF7CFFA01216F
:1026A0002000FFF7B1FA0123A340114A1360114B38
:1026B000A400E550BFF35F8F00220B4B1A6086F336
:1026C000108870BD0B4BA200D5500122A2400A49D0
:1026D00020000B7893430B700449FFF7D9FA0021CF
:1026E0002000FFF791FAE5E7280100D071250010DE
:1026F000386005405C03002012040020F0B5D64687
:102700004F464646324CC0B5656A00E00D00A66AE9
:10271000616AA942FAD1AB4209D806D0012420004F
:102720001CBC90469946A246F0BDB242F6D9EFF3E2
:10273000108972B6274C21680029FCD0BFF35F8F47
:102740000126254986408C460978244D0F003743E1
:102750008846F9B28A46614654460C701C49041DED
:10276000A4004E636250840063510D6A0024354218
:102770001AD04D6A00E025008F6A4C6AAC42FAD14B
:10278000AB4219D801D1BA4216D8C2451DD0104B60
:10279000134A1E625E631F2318401E3B8340136072
:1027A0006346424601241A70BFF35F8F0022094B33
:1027B0001A6089F31088B2E70024BFF35F8F00220C
:1027C000044B1A6089F31088A9E70124ECE7C0469E
:1027D00000400540280100D0120400200004002021
:1027E00080E200E010B5EFF3108472B60A490B687E
:1027F000002BFCD0BFF35F8F01238340074A0848BA
:10280000136202789A430270BFF35F8F00230B605C
:1028100084F3108810BDC046280100D00040054058
:102820001204002070B506000D00140000291ED00F
:10283000002A1ED073688068984763006A001B19DD
:102840005219033B033A3168002808D0CB188A1884
:102850009D70117800290ED11470280008E08A18A4
:10286000CB1894701978002900D051701D70200089
:1028700070BD0800FCE7597028001470F8E7C046E6
:10288000F0B5DE4657464E464546E0B58360002328
:1028900089B04260026806914373C9B20133059161
:1028A00001738373C1730492012900D8A4E00A0064
:1028B0004B1ED9B2931E0791072B00D8AEE000251E
:1028C000CB080393049B564C591C564B56489B46C9
:1028D000564B9A46564B9C46564B0293524663467D
:1028E0005F465E4662401A40504B2740FB185A40F4
:1028F0000640534601966646434033404B4E0A70AD
:10290000B046019E0135B146C844464673401604A0
:10291000360ECE701602120E4A721A04120E0B7385
:10292000CA731A021B0E4B75029B360E5C4063463F
:102930001C40404B120E9846029B47445840634649
:1029400018404B4643445840039BEDB28E718A7445
:102950007C401831AB42C1D1079907230A009A4342
:10296000531CDBB2914247D0049C5A00A446D218B3
:10297000591C6244059DC9B2033A51708D423BD93E
:102980004A005218981C6244C0B2033A5070854203
:1029900032D942001218D91C6244C9B2033A5170AC
:1029A0008D4229D94A005218181D6244C0B2033A18
:1029B0005070854220D942001218591D6244C9B294
:1029C000033A51708D4217D94A005218981D62443B
:1029D000C0B2033A507085420ED942001218D91D78
:1029E0006244C9B2033A51708D4205D94A00521867
:1029F0006244033A08335370FF23069A1340590088
:102A0000C918049B9C460023614403394B7009B0EC
:102A10003CBC90469946A246AB46F0BD0123A3E7D5
:102A2000010203047F7F7F7F050607080101010182
:102A3000808080800808080870B50400002907D04D
:102A40004B0000685B18033BC3185A78002A01D179
:102A5000080070BD5500AD18033D401900254678AB
:102A600045705D702000FFF7DDFE3100050020009D
:102A7000FFF7E2FF290002002000FFF7D3FE01006C
:102A8000E6E7C046F0B54E464546DE465746E0B559
:102A90000E0074000168A41985B0033C01920A1964
:102AA0000500107800284CD043001B18033BCB18BE
:102AB0005F78BC46002F16D1019C002C3ED0EC7BE9
:102AC000002C04D063001B19CB18033B5E70EE731F
:102AD00000282FD10023537005B03CBC9046994686
:102AE000A246AB46F0BD7A006244033A89184A78A0
:102AF000934600224A7090465A7001003A0028001E
:102B0000FFF790FE5B468146002B07D05B002968EB
:102B10005B44033BCB185A78002A16D15A464946E3
:102B20002800FFF77FFE2968019B0A19002BC6D1F8
:102B30000028CFD043001B18033BCB18002199700D
:102B4000C8E7019B002BBAD1C4E7500080180338B6
:102B500009184878824640464870587059462800FF
:102B6000FFF760FE53468346002B07D05B002968C1
:102B70005344033BCB185A78002A06D15946524693
:102B80002800FFF74FFE8346C8E75000801803383F
:102B9000091840464F7848705870514628000297EF
:102BA000FFF740FE8246002F08D0BC467B00296814
:102BB0006344033BCB185A78002A06D15146029A47
:102BC0002800FFF72FFE8246D8E750008018033810
:102BD000091840464F7848705870029928000397AA
:102BE000FFF720FE8046002F08D0BC467B002968F6
:102BF0006344033BCB185A78002A06D1039A414616
:102C00002800FFF70FFE0290D8E703205043033857
:102C1000091800204F784870587003992800FFF772
:102C200001FE390002902800FFF706FF029902001A
:102C30002800FFF7F7FD0390E0E7C046F0B54E46E9
:102C40004546DE465746E0B5467B05007400006801
:102C5000A419033C85B002190191117800294ED0C6
:102C60004B005B18033BC3185F78BC46002F18D19C
:102C7000019C002C40D0EC7B002C04D063001B197D
:102C8000C318033B5E70EE73002931D1002330007E
:102C90005370697305B03CBC90469946A246AB465A
:102CA000F0BD7A006244033A8018427893460022CD
:102CB000427090465A7028003A00FFF7B3FD5B4619
:102CC0008146002B07D05B0029685B44033BCB188F
:102CD0005A78002A17D15A4649462800FFF7A2FD24
:102CE000019B010028680219002BC4D10029CDD016
:102CF0004B005B18033BC31800209870C6E7019B8C
:102D0000002BB8D1C2E75000801803380918487862
:102D1000824640464870587059462800FFF782FDA9
:102D200053468346002B07D05B0029685344033B7E
:102D3000CB185A78002A06D1594652462800FFF788
:102D400071FD8346C7E750008018033809184046D4
:102D50004F7848705870514628000297FFF762FD7F
:102D60008246002F08D0BC467B0029686344033BA1
:102D7000CB185A78002A06D15146029A2800FFF74C
:102D800051FD8246D8E750008018033809184046A4
:102D90004F7848705870029928000397FFF742FD5A
:102DA0008046002F08D0BC467B0029686344033B63
:102DB000CB185A78002A06D1039A41462800FFF71B
:102DC00031FD0290D8E70320504303380918002052
:102DD0004F784870587003992800FFF723FD390099
:102DE00002902800FFF728FE029902002800FFF752
:102DF00019FD0390E0E7C04670B5040000292CD00F
:102E0000437B8B422ED005684800401803382818B1
:102E10008278002A21D053009B18033BEB181A78C4
:102E20008A4202D11BE0002A08D053009B18033BC2
:102E3000EB185A788A42F6D142785A700023012260
:102E4000837043702000FFF71DFE617B02002000AD
:102E5000FFF7E8FC6073012000E0002070BD4278BD
:102E60001A70EBE701221900FFF70CFE60730120D6
:102E7000F4E7C04610B50400FEF7BAFE01002000DA
:102E8000FFF74CF8FF232371BFF35F8F10BDC046DF
:102E900010B50400FEF7ACFE01002000FFF73EF87D
:102EA000FF23A380BFF35F8F10BDC046F8B50400B9
:102EB00006200D0000F066FA002845D02B4B2C4967
:102EC000E3185A4253418022D20394465B42134096
:102ED000284A63441360284A136018008A689043A4
:102EE000FBD1224B8021E3185A425341234A5B0015
:102EF00049000620995200F045FA2900C00000F070
:102F00000DFBC30921D140270122260080256262E2
:102F1000A36200232C36AD0135432B60062000F060
:102F200031FA3900800000F0F9FA6023E26A534078
:102F30006E221A4080235B0133431A60104B2363D7
:102F400010232B600D3BA364F8BD0E4A934203D9B6
:102F500000230D4F0D4AD8E77F2210400130400872
:102F60009F011A003F180300CFE7C0460080FCBF56
:102F700000C0004000E0004000F0004014040020C9
:102F800001030000FEFF0000C0FF3F00FFFF000044
:102F90002D4B2E4A70B51A602D4A2E4B2E491A60C1
:102FA00010008B689843FBD12C4C2D4B9C4209D2CE
:102FB000013B1D1BAD080135AD002D1908CC98470C
:102FC000AC42FBD100F07EF8264A224B1A60224A1E
:102FD0009368DB018033FBD14022234B234D2448EF
:102FE0009A675A671A67DA66A84205D30EE0FFF7B8
:102FF0004FFF2000AC4209D2040003680834002BC4
:10300000F5D1FFF737FF2000AC42F5D3194C1A4D2C
:10301000A168C022280000F087FBA560FEF7DAFD5A
:10302000FEF76AFFFFF726F9144C154B9C4209D2B4
:10303000013B1D1BAD080135AD002D1908CC98478B
:10304000A542FBD170BDC04600E00040BFCDFBFEF5
:10305000FE7F3C0000F0004000C00040280200203D
:1030600038020020FFFFFF0100F00140280200208D
:103070002002002000ED00E00000002038020020C7
:103080003C02002000BEFDE70FB400B5084883B045
:1030900000F07CFC049B002B07D005A918000191CF
:1030A00000F0EEF9034800F071FC00BEFDE7C046F9
:1030B000A03D0010303C001010B50148FFF7E4FFC0
:1030C000943D001030B50C2083B000F0B5F9FEF748
:1030D00079FD00280ED0944B944A1A605A609A6089
:1030E000DA601A615A619A61DA611A62904A5A6228
:1030F00003B030BD8F4CA06700F0A6F901228E4BC3
:103100001A60636C012BFCD103228C4B1A60894A34
:10311000936B012BFCD101330093894A04330121C5
:10312000884800F035F90523874A00930121874834
:1031300000F02EF9864B5A68FF2A02D880225200EE
:103140005A608022784C7D4B21691201804D1A60B3
:10315000002905D0606900F0E1F901300138FDD1A6
:10316000E0217B4B02201A681140802252012A4341
:1031700011601968484003210140116004219A68D8
:103180001142FCD08022802192012A430901116062
:10319000802252005A606F4B23616F4B5968FF29A0
:1031A00000D85A6003226C48634B01211A60020068
:1031B00093681942FCD0E02513681D4080235B0111
:1031C00003431D6012684A40032111401960022127
:1031D000614A93681942FCD0802380219B010343FC
:1031E0000901196080215D4B4900516063615C4BAE
:1031F0005A68FF2A00D8596080225A4BE1691201AF
:10320000574D1A60002905D0606900F087F9013038
:103210000138FDD1E02252490B681A4080235B013E
:103220002B431A60802380229B012B4312011A60DA
:1032300080223E4B52004A60E3614B4B5968FF29A4
:1032400000D85A608022494B216A1201464D1A600B
:10325000002905D0606900F061F901300138FDD125
:10326000E02241490B681A4080235B012B431A601E
:10327000802380229B012B4312011A6080235B0074
:103280004B602A4B3A4A23623A4B5968914201D823
:1032900001325A608022384B616A1201354D1A6042
:1032A000002905D0606900F039F901300138FDD1FD
:1032B000E02230490B681A4080235B012B431A60DF
:1032C000802380229B012B4312011A608023DB02A2
:1032D0004B60174B6362294B5A68FF2A02D8802241
:1032E00052005A608022264BA1691201234D1A60B8
:1032F000002905D0606900F011F901300138FDD1D5
:10330000E0221E490B681A4080235B012B431A60A0
:10331000802380229B012B4312011A6080235B00D3
:103320004B600E4BA361E3E670030020006CDC02EF
:103330001BB70000008000403CB0004030B00040AF
:10334000002F685900800240008C864700C0024070
:1033500030800040001BB7003C800040405973079C
:103360005480004054B000406080004060B0004095
:10337000FFFF03006C8000406CB0004048800040BC
:1033800048B00040014B8000C058704770030020D7
:10339000F8B504000C201E0017000D0000F0BEF868
:1033A0004201121A9101891AC900091889013800CD
:1033B00000F0B4F8069B226836041B033343002A4E
:1033C00021DB194A194EA21851424A418021490174
:1033D0008C4652420A40164962440A6015490A6006
:1033E0001700B1688F43FBD1C021221D8901114311
:1033F00021222560A0600A602268002AFCDAE360CE
:1034000008230B60F8BD3F2221680A40AA42D8D1A8
:10341000A2681205120D8242D3D1EE21E268C902E0
:103420000A409A42CDD1EDE70040FDBF00C0004008
:1034300000E0004000F000408023024A9B0003436C
:10344000D362704700800540AA23064A1B0113601F
:103450002F230549D360054B19605368002BFCDA14
:103460007047C0460040024000B0FA0000600240D1
:1034700010B5002800D110BD00F036FAFBE7C046B9
:1034800010B5094A84B01468002C09D001220091BB
:103490000300524203A90548A047012004B010BD13
:1034A00000F074FA0020F9E7E00300207134001006
:1034B00001480421014B184700020020E1340010AC
:1034C000142310B50100188804331B88984710BDD9
:1034D000162310B50100188802331B88984710BDC9
:1034E000F0B5C64600B5002916D014230400012506
:1034F00098461827890046184346216818883B8853
:10350000984701C4431E984140420540A642F3D16A
:10351000280004BC9046F0BD0125F9E7114A936FDD
:103520009B0813D210665166002905D0FFE7FFE71C
:10353000FFE7516F106F704704B5002801D00020DD
:10354000C04300F081FA002104BDC046F0B5146EFE
:10355000556E576F166FFFF7E5FF14665566576790
:103560001667F0BD000000D0132370B51D78012D43
:1035700015D010DD2648FFF7ABFF264C0100802256
:10358000200000F0D1F8022D06D02348FFF798FF65
:10359000224B186070BD1F4C214AA264F5E71D4CF8
:1035A0001F4AA3085B421D402FD02B002260202021
:1035B000A9006118451B0A604A608A60CA600A61F6
:1035C0004A618A61CA610A624A628A62CA620A639D
:1035D0004A638A63CA630A644A648A64CA640A657D
:1035E0004A658A65CA650A664A668A66CA660A675D
:1035F0004A676D08102D03D18A67CA67A264C4E7C1
:103600001E339B00E250A264BFE70023CFE7C04611
:1036100053440000180400204C330000F80300203D
:103620002536001007B5604601880A0A0230DF2AF5
:10363000FAD1C9B2820804D302884088000410433A
:1036400000E00068014A5050039007BD18040020B4
:1036500051434343C9188C46110C83B24B4310B4F9
:10366000040C614392B280B2504362431C041B0CB1
:10367000001910BC59411304120CC0185141614487
:1036800070470000132310B51C781348FFF720FF84
:10369000012C0BD004DD01008022104800F044F81A
:1036A0000F48FFF70DFF0F4B186010BD0B4C0100CA
:1036B0005422200000F038F80B4B6365A365E365E6
:1036C00023666366A366E36623676367A367E367AE
:1036D0002362E361E4E7C04653460000180500207A
:1036E0004C330000F8030020ED36001007B56046AB
:1036F00001880A0A0230DF2AFAD1C9B2820804D34B
:10370000028840880004104300E00068014A5050DD
:10371000039007BD1805002001480421014B1847FC
:1037200010020020E1340010014B5B6818470000D4
:1037300010020020030010B508001B681100984714
:1037400010BDC046F8B54746CE4680B5437C80469E
:103750000C001500002B43D0002A34DD0A78037CCE
:1037600000200A2A33D0012D1ED0204B0121671ED4
:10377000994602E03100B54216D0635C7A5C4E1C7B
:103780000A2BF7D10D2AF5D043461B68884204DA8C
:10379000091A2018984743461B6802214846984753
:1037A00030003100B542E8D1854204DD4346291A94
:1037B0001B68201898476419013C23780D3B5A4236
:1037C0005341424613740CBC90469946F8BD002BF9
:1037D000C9D14346054802211B6898470120C2E72A
:1037E0000368110020009847EDE7C046103E001026
:1037F000F0B5DE4657464E464546E0B51E00D0239E
:103800001B0683B01C68334B01AF80460D001800C7
:10381000390091469B4600F01FF98246002808D1E6
:10382000019B64B29C4204D0584600F01DF901236C
:103830009A466B1C03D1404600F0C6F80500002EE6
:1038400028D1254E254B1C68002C16D04B46002B4A
:1038500022D1234F02E0E468002C0ED02368002B15
:10386000F9D03B68002B01D0A342F4D120002A00FC
:103870004146B047E468002CF0D15346002B25D1D7
:10388000681E8541E8B203B03CBC90469946A2460A
:10389000AB46F0BD134ED5E7114B994602E0E46804
:1038A000002CEAD02368002BF9D04B461B68002B74
:1038B00001D0A342F3D12A0041462000B0470A2399
:1038C0000122390020003B70B047E8E7584600F07D
:1038D000B3F8D5E72002002045370010D8030020B8
:1038E000DC03002035370010F0B54746CE4680B5E2
:1038F00083B06B46DF1CD02338701B061C68204B3E
:10390000060001A91800984600F0A6F8051E22D06E
:103910001C4B1C68002C2AD01B4B994602E0E46823
:10392000002C10D02368002BF9D04B461B68002BCD
:1039300001D0A342F3D1200001223900FFF702FF9A
:10394000E468002CEED1002D11D1300003B00CBC86
:1039500090469946F0BD019B64B29C420BD0404614
:1039600000F082F8074B01251C68002CD4D140469A
:1039700000F062F8E9E7034B1C68002CCCD1E4E7C7
:1039800020020020D8030020DC03002070B50400D2
:1039900000F01AF800230100050001222000FFF7C3
:1039A00027FF084B1C68002C06D06368002B05D04D
:1039B0009847E468002CF8D1280070BDE468002C1A
:1039C000F3D1F9E7D803002010B5830727D0037897
:1039D000002B26D00300032102E01A78002A1CD015
:1039E00001330B42F9D119680F4A104C8A188A43E7
:1039F00022420FD1043319680B4A8A188A432242A3
:103A000008D104331968084A8A188A432242F1D03F
:103A100000E001331A78002AFBD1181A10BD030008
:103A2000E1E70020FAE7C046FFFEFEFE80808080CE
:103A3000F8B5C0460000000001B40248844601BC4D
:103A4000604700BF5101002001B40248844601BC18
:103A5000604700BF7901002001B40248844601BCE0
:103A6000604700BF0901002001B40248844601BC40
:083A7000604700BFC100002007
:103A780056657273696F6E20312E312052656C6500
:103A8800617365642031352F31312F323032322065
:103A980061742031353A34322028494354290D0ABB
:103AA80000000000277B2261636B223A22434F4DBE
:103AB800227D270D0A000000277B2261636B223AD2
:103AC800224F42204C4544204F4E227D270D0A00AC
:103AD800277B2261636B223A224F42204C454420C7
:103AE8004F4646227D270D0A00000000277B2261F1
:103AF800636B223A224252205550227D270D0A003C
:103B0800277B2261636B223A2242522044574E227D
:103B18007D270D0A00000000277B2261636B223A93
:103B2800224252205042227D270D0A00277B226123
:103B3800636B223A22425220504F53227D270D0AAE
:103B480000000000277B227374617465223A2242C8
:103B5800522044574E227D270D0A0000277B2273EE
:103B680074617465223A224252205550227D270DF5
:103B78000A000000277B2261636B223A22544C2002
:103B8800524544204F4E227D270D0A00277B226193
:103B9800636B223A22544C20524544204F46462219
:103BA8007D270D0A00000000277B2261636B223A03
:103BB80022544C2047524E204F4E227D270D0A009A
:103BC800277B2261636B223A22544C2047524E20B5
:103BD8004F4646227D270D0A00000000277B226100
:103BE800636B223A2242454550204F4E227D270DD5
:103BF8000A000000277B2261636B223A2242454576
:103C080050204F4646227D270D0A0000277B22615F
:103C1800636B223A224649524D574152452055502E
:103C28004C4F4144227D270D0A00000044796E6103
:103C38006D696320495420536F6C7574696F6E7396
:103C4800205061726B696E67204261727269657299
:103C580020436F6E74726F6C6C65720D0A00000001
:103C68004279205375766972204B756D6172203CDC
:103C7800737576697240646974732E636F2E746805
:103C88003E0D0A000D0A4D61696E204D656E750D79
:103C98000A0000000D0A632043686B20436F6D6DB6
:103CA8000D0A3F20436C6561722053637265656E2F
:103CB80020262053686F77204D656E750D0A3120D8
:103CC800546F67676C65204F6E626F617264204C39
:103CD80045440D0A3220426172726965722055703E
:103CE8000D0A33204261727269657220446F776EE3
:103CF8000D0A34204261727269657220546F6767D9
:103D08006C650D0A35204261727269657220506FC8
:103D1800736974696F6E0D0A3620526564204C69A8
:103D2800676874204F6E0D0A3720526564204C690D
:103D3800676874204F66660D0A3820477265656E9D
:103D4800204C69676874204F6E0D0A3920477265E8
:103D5800656E204C69676874204F66660D0A3020CE
:103D6800426565700D0A000048617264776172658A
:103D780020616C61726D20256420616C72656164DC
:103D88007920636C61696D65640000004861726444
:103D980020617373657274000A2A2A2A2050414EE2
:103DA8004943202A2A2A0A0006005250BBFF3CB683
:103DB800F43D001006005250E182887FDC3D00107F
:103DC80006005250D3F07542D43D001052656C6520
:103DD80061736500626F6F74325F773235713038A6
:103DE80030000000312E342E300000007069636FFF
:103DF8000000000062617272696572004E6F762081
:0C3E080031322032303232000D0A00004E
:103E1400B4020010A80200109C020010B03D001073
:0C3E240090020010BC3D0010C83D0010D2
:103E3000D02330B500251B065D57002406E003683B
:103E4000BFF35F8F1C6081F3108820BF0268EFF31F
:103E5000108172B61368002BFCD0BFF35F8F03791B
:103E60007F2BECD905710368BFF35F8F00221A60C6
:103E700081F3108830BDC046030010B50068EFF331
:103E8000108472B60268002AFCD0BFF35F8F042250
:103E90009A56002A0BDB00290FD000200A601B680D
:103EA000BFF35F8F00221A6084F3108810BDD02208
:103EB0001206126801201A71F1E70020EFE7C046F0
:103EC0000268EFF3108172B61368002BFCD0BFF3C9
:103ED0005F8FFF2303710368BFF35F8F00221A60B7
:103EE00081F3108840BF70477047C0460200000051
:103EF00002000000100000000000000000000100AF
:103F000000000000000000000000020000000000AF
:103F1000000000000000030000000000000000009E
:103F20000000FF000000000000B5486801318E4627
:103F30000047704609380149884700BD451E0010FA
:103F4000E80100200000000040020020980300204B
:103F50000000000000000000A80300200000000096
:103F60000000000010000000000000000000000041
:103F7000503300004C330000543300005233000033
:103F80004D5300004D430000533400004334000003
:103F9000000000000000000019370010B1340010CC
:0C3FA00069350010853600103903001050
:04000005100001E9FD
:00000001FF
